{
  "_format": "hh-sol-artifact-1",
  "contractName": "NFT",
  "sourceName": "contracts/nft.sol",
  "abi": [
    {
      "inputs": [
        {
          "internalType": "address",
          "name": "marketPlaceAddress",
          "type": "address"
        }
      ],
      "stateMutability": "nonpayable",
      "type": "constructor"
    },
    {
      "anonymous": false,
      "inputs": [
        {
          "indexed": true,
          "internalType": "address",
          "name": "owner",
          "type": "address"
        },
        {
          "indexed": true,
          "internalType": "address",
          "name": "approved",
          "type": "address"
        },
        {
          "indexed": true,
          "internalType": "uint256",
          "name": "tokenId",
          "type": "uint256"
        }
      ],
      "name": "Approval",
      "type": "event"
    },
    {
      "anonymous": false,
      "inputs": [
        {
          "indexed": true,
          "internalType": "address",
          "name": "owner",
          "type": "address"
        },
        {
          "indexed": true,
          "internalType": "address",
          "name": "operator",
          "type": "address"
        },
        {
          "indexed": false,
          "internalType": "bool",
          "name": "approved",
          "type": "bool"
        }
      ],
      "name": "ApprovalForAll",
      "type": "event"
    },
    {
      "anonymous": false,
      "inputs": [
        {
          "indexed": true,
          "internalType": "address",
          "name": "from",
          "type": "address"
        },
        {
          "indexed": true,
          "internalType": "address",
          "name": "to",
          "type": "address"
        },
        {
          "indexed": true,
          "internalType": "uint256",
          "name": "tokenId",
          "type": "uint256"
        }
      ],
      "name": "Transfer",
      "type": "event"
    },
    {
      "inputs": [
        {
          "internalType": "address",
          "name": "to",
          "type": "address"
        },
        {
          "internalType": "uint256",
          "name": "tokenId",
          "type": "uint256"
        }
      ],
      "name": "approve",
      "outputs": [],
      "stateMutability": "nonpayable",
      "type": "function"
    },
    {
      "inputs": [
        {
          "internalType": "address",
          "name": "owner",
          "type": "address"
        }
      ],
      "name": "balanceOf",
      "outputs": [
        {
          "internalType": "uint256",
          "name": "",
          "type": "uint256"
        }
      ],
      "stateMutability": "view",
      "type": "function"
    },
    {
      "inputs": [
        {
          "internalType": "string",
          "name": "tokenURI",
          "type": "string"
        }
      ],
      "name": "createToken",
      "outputs": [
        {
          "internalType": "uint256",
          "name": "",
          "type": "uint256"
        }
      ],
      "stateMutability": "payable",
      "type": "function"
    },
    {
      "inputs": [
        {
          "internalType": "uint256",
          "name": "tokenId",
          "type": "uint256"
        }
      ],
      "name": "getApproved",
      "outputs": [
        {
          "internalType": "address",
          "name": "",
          "type": "address"
        }
      ],
      "stateMutability": "view",
      "type": "function"
    },
    {
      "inputs": [
        {
          "internalType": "address",
          "name": "owner",
          "type": "address"
        }
      ],
      "name": "getBalanceOfToken",
      "outputs": [
        {
          "internalType": "uint256",
          "name": "",
          "type": "uint256"
        }
      ],
      "stateMutability": "view",
      "type": "function"
    },
    {
      "inputs": [
        {
          "internalType": "address",
          "name": "owner",
          "type": "address"
        },
        {
          "internalType": "address",
          "name": "operator",
          "type": "address"
        }
      ],
      "name": "isApprovedForAll",
      "outputs": [
        {
          "internalType": "bool",
          "name": "",
          "type": "bool"
        }
      ],
      "stateMutability": "view",
      "type": "function"
    },
    {
      "inputs": [],
      "name": "name",
      "outputs": [
        {
          "internalType": "string",
          "name": "",
          "type": "string"
        }
      ],
      "stateMutability": "view",
      "type": "function"
    },
    {
      "inputs": [
        {
          "internalType": "uint256",
          "name": "tokenId",
          "type": "uint256"
        }
      ],
      "name": "ownerOf",
      "outputs": [
        {
          "internalType": "address",
          "name": "",
          "type": "address"
        }
      ],
      "stateMutability": "view",
      "type": "function"
    },
    {
      "inputs": [
        {
          "internalType": "address",
          "name": "from",
          "type": "address"
        },
        {
          "internalType": "address",
          "name": "to",
          "type": "address"
        },
        {
          "internalType": "uint256",
          "name": "tokenId",
          "type": "uint256"
        }
      ],
      "name": "safeTransferFrom",
      "outputs": [],
      "stateMutability": "nonpayable",
      "type": "function"
    },
    {
      "inputs": [
        {
          "internalType": "address",
          "name": "from",
          "type": "address"
        },
        {
          "internalType": "address",
          "name": "to",
          "type": "address"
        },
        {
          "internalType": "uint256",
          "name": "tokenId",
          "type": "uint256"
        },
        {
          "internalType": "bytes",
          "name": "data",
          "type": "bytes"
        }
      ],
      "name": "safeTransferFrom",
      "outputs": [],
      "stateMutability": "nonpayable",
      "type": "function"
    },
    {
      "inputs": [
        {
          "internalType": "address",
          "name": "operator",
          "type": "address"
        },
        {
          "internalType": "bool",
          "name": "approved",
          "type": "bool"
        }
      ],
      "name": "setApprovalForAll",
      "outputs": [],
      "stateMutability": "nonpayable",
      "type": "function"
    },
    {
      "inputs": [
        {
          "internalType": "bytes4",
          "name": "interfaceId",
          "type": "bytes4"
        }
      ],
      "name": "supportsInterface",
      "outputs": [
        {
          "internalType": "bool",
          "name": "",
          "type": "bool"
        }
      ],
      "stateMutability": "view",
      "type": "function"
    },
    {
      "inputs": [],
      "name": "symbol",
      "outputs": [
        {
          "internalType": "string",
          "name": "",
          "type": "string"
        }
      ],
      "stateMutability": "view",
      "type": "function"
    },
    {
      "inputs": [
        {
          "internalType": "uint256",
          "name": "tokenId",
          "type": "uint256"
        }
      ],
      "name": "tokenURI",
      "outputs": [
        {
          "internalType": "string",
          "name": "",
          "type": "string"
        }
      ],
      "stateMutability": "view",
      "type": "function"
    },
    {
      "inputs": [
        {
          "internalType": "address",
          "name": "from",
          "type": "address"
        },
        {
          "internalType": "address",
          "name": "to",
          "type": "address"
        },
        {
          "internalType": "uint256",
          "name": "tokenId",
          "type": "uint256"
        }
      ],
      "name": "transferFrom",
      "outputs": [],
      "stateMutability": "nonpayable",
      "type": "function"
    }
  ],
  "bytecode": "0x60806040523480156200001157600080fd5b50604051620030753803806200307583398181016040528101906200003791906200017b565b6040518060400160405280600d81526020017f636f64655768697a7065726572000000000000000000000000000000000000008152506040518060400160405280600381526020017f43575200000000000000000000000000000000000000000000000000000000008152508160009081620000b4919062000427565b508060019081620000c6919062000427565b50505080600960006101000a81548173ffffffffffffffffffffffffffffffffffffffff021916908373ffffffffffffffffffffffffffffffffffffffff160217905550506200050e565b600080fd5b600073ffffffffffffffffffffffffffffffffffffffff82169050919050565b6000620001438262000116565b9050919050565b620001558162000136565b81146200016157600080fd5b50565b60008151905062000175816200014a565b92915050565b60006020828403121562000194576200019362000111565b5b6000620001a48482850162000164565b91505092915050565b600081519050919050565b7f4e487b7100000000000000000000000000000000000000000000000000000000600052604160045260246000fd5b7f4e487b7100000000000000000000000000000000000000000000000000000000600052602260045260246000fd5b600060028204905060018216806200022f57607f821691505b602082108103620002455762000244620001e7565b5b50919050565b60008190508160005260206000209050919050565b60006020601f8301049050919050565b600082821b905092915050565b600060088302620002af7fffffffffffffffffffffffffffffffffffffffffffffffffffffffffffffffff8262000270565b620002bb868362000270565b95508019841693508086168417925050509392505050565b6000819050919050565b6000819050919050565b60006200030862000302620002fc84620002d3565b620002dd565b620002d3565b9050919050565b6000819050919050565b6200032483620002e7565b6200033c62000333826200030f565b8484546200027d565b825550505050565b600090565b6200035362000344565b6200036081848462000319565b505050565b5b8181101562000388576200037c60008262000349565b60018101905062000366565b5050565b601f821115620003d757620003a1816200024b565b620003ac8462000260565b81016020851015620003bc578190505b620003d4620003cb8562000260565b83018262000365565b50505b505050565b600082821c905092915050565b6000620003fc60001984600802620003dc565b1980831691505092915050565b6000620004178383620003e9565b9150826002028217905092915050565b6200043282620001ad565b67ffffffffffffffff8111156200044e576200044d620001b8565b5b6200045a825462000216565b620004678282856200038c565b600060209050601f8311600181146200049f57600084156200048a578287015190505b62000496858262000409565b86555062000506565b601f198416620004af866200024b565b60005b82811015620004d957848901518255600182019150602085019450602081019050620004b2565b86831015620004f95784890151620004f5601f891682620003e9565b8355505b6001600288020188555050505b505050505050565b612b57806200051e6000396000f3fe6080604052600436106100e85760003560e01c80636352211e1161008a578063a22cb46511610059578063a22cb4651461031f578063b88d4fde14610348578063c87b56dd14610371578063e985e9c5146103ae576100e8565b80636352211e1461023d57806370a082311461027a57806383786f8c146102b757806395d89b41146102f4576100e8565b8063095ea7b3116100c6578063095ea7b31461019257806323b872dd146101bb57806342842e0e146101e457806345576f941461020d576100e8565b806301ffc9a7146100ed57806306fdde031461012a578063081812fc14610155575b600080fd5b3480156100f957600080fd5b50610114600480360381019061010f9190611a59565b6103eb565b6040516101219190611aa1565b60405180910390f35b34801561013657600080fd5b5061013f6104cd565b60405161014c9190611b4c565b60405180910390f35b34801561016157600080fd5b5061017c60048036038101906101779190611ba4565b61055f565b6040516101899190611c12565b60405180910390f35b34801561019e57600080fd5b506101b960048036038101906101b49190611c59565b6105a5565b005b3480156101c757600080fd5b506101e260048036038101906101dd9190611c99565b6106bc565b005b3480156101f057600080fd5b5061020b60048036038101906102069190611c99565b61071c565b005b61022760048036038101906102229190611e21565b61073c565b6040516102349190611e79565b60405180910390f35b34801561024957600080fd5b50610264600480360381019061025f9190611ba4565b6107a0565b6040516102719190611c12565b60405180910390f35b34801561028657600080fd5b506102a1600480360381019061029c9190611e94565b610826565b6040516102ae9190611e79565b60405180910390f35b3480156102c357600080fd5b506102de60048036038101906102d99190611e94565b6108dd565b6040516102eb9190611e79565b60405180910390f35b34801561030057600080fd5b506103096108ef565b6040516103169190611b4c565b60405180910390f35b34801561032b57600080fd5b5061034660048036038101906103419190611eed565b610981565b005b34801561035457600080fd5b5061036f600480360381019061036a9190611fce565b610997565b005b34801561037d57600080fd5b5061039860048036038101906103939190611ba4565b6109f9565b6040516103a59190611b4c565b60405180910390f35b3480156103ba57600080fd5b506103d560048036038101906103d09190612051565b610b0b565b6040516103e29190611aa1565b60405180910390f35b60007f80ac58cd000000000000000000000000000000000000000000000000000000007bffffffffffffffffffffffffffffffffffffffffffffffffffffffff1916827bffffffffffffffffffffffffffffffffffffffffffffffffffffffff191614806104b657507f5b5e139f000000000000000000000000000000000000000000000000000000007bffffffffffffffffffffffffffffffffffffffffffffffffffffffff1916827bffffffffffffffffffffffffffffffffffffffffffffffffffffffff1916145b806104c657506104c582610b9f565b5b9050919050565b6060600080546104dc906120c0565b80601f0160208091040260200160405190810160405280929190818152602001828054610508906120c0565b80156105555780601f1061052a57610100808354040283529160200191610555565b820191906000526020600020905b81548152906001019060200180831161053857829003601f168201915b5050505050905090565b600061056a82610c09565b6004600083815260200190815260200160002060009054906101000a900473ffffffffffffffffffffffffffffffffffffffff169050919050565b60006105b0826107a0565b90508073ffffffffffffffffffffffffffffffffffffffff168373ffffffffffffffffffffffffffffffffffffffff1603610620576040517f08c379a000000000000000000000000000000000000000000000000000000000815260040161061790612163565b60405180910390fd5b8073ffffffffffffffffffffffffffffffffffffffff1661063f610c54565b73ffffffffffffffffffffffffffffffffffffffff16148061066e575061066d81610668610c54565b610b0b565b5b6106ad576040517f08c379a00000000000000000000000000000000000000000000000000000000081526004016106a4906121f5565b60405180910390fd5b6106b78383610c5c565b505050565b6106cd6106c7610c54565b82610d15565b61070c576040517f08c379a000000000000000000000000000000000000000000000000000000000815260040161070390612287565b60405180910390fd5b610717838383610daa565b505050565b61073783838360405180602001604052806000815250610997565b505050565b600061074860076110a3565b600061075460076110b9565b905061076033826110c7565b61076a81846112e4565b610797600960009054906101000a900473ffffffffffffffffffffffffffffffffffffffff166001610981565b80915050919050565b6000806107ac83611351565b9050600073ffffffffffffffffffffffffffffffffffffffff168173ffffffffffffffffffffffffffffffffffffffff160361081d576040517f08c379a0000000000000000000000000000000000000000000000000000000008152600401610814906122f3565b60405180910390fd5b80915050919050565b60008073ffffffffffffffffffffffffffffffffffffffff168273ffffffffffffffffffffffffffffffffffffffff1603610896576040517f08c379a000000000000000000000000000000000000000000000000000000000815260040161088d90612385565b60405180910390fd5b600360008373ffffffffffffffffffffffffffffffffffffffff1673ffffffffffffffffffffffffffffffffffffffff168152602001908152602001600020549050919050565b60006108e882610826565b9050919050565b6060600180546108fe906120c0565b80601f016020809104026020016040519081016040528092919081815260200182805461092a906120c0565b80156109775780601f1061094c57610100808354040283529160200191610977565b820191906000526020600020905b81548152906001019060200180831161095a57829003601f168201915b5050505050905090565b61099361098c610c54565b838361138e565b5050565b6109a86109a2610c54565b83610d15565b6109e7576040517f08c379a00000000000000000000000000000000000000000000000000000000081526004016109de90612287565b60405180910390fd5b6109f3848484846114fa565b50505050565b6060610a0482610c09565b6000600660008481526020019081526020016000208054610a24906120c0565b80601f0160208091040260200160405190810160405280929190818152602001828054610a50906120c0565b8015610a9d5780601f10610a7257610100808354040283529160200191610a9d565b820191906000526020600020905b815481529060010190602001808311610a8057829003601f168201915b505050505090506000610aae611556565b90506000815103610ac3578192505050610b06565b600082511115610af8578082604051602001610ae09291906123e1565b60405160208183030381529060405292505050610b06565b610b018461156d565b925050505b919050565b6000600560008473ffffffffffffffffffffffffffffffffffffffff1673ffffffffffffffffffffffffffffffffffffffff16815260200190815260200160002060008373ffffffffffffffffffffffffffffffffffffffff1673ffffffffffffffffffffffffffffffffffffffff16815260200190815260200160002060009054906101000a900460ff16905092915050565b60007f01ffc9a7000000000000000000000000000000000000000000000000000000007bffffffffffffffffffffffffffffffffffffffffffffffffffffffff1916827bffffffffffffffffffffffffffffffffffffffffffffffffffffffff1916149050919050565b610c12816115d5565b610c51576040517f08c379a0000000000000000000000000000000000000000000000000000000008152600401610c48906122f3565b60405180910390fd5b50565b600033905090565b816004600083815260200190815260200160002060006101000a81548173ffffffffffffffffffffffffffffffffffffffff021916908373ffffffffffffffffffffffffffffffffffffffff160217905550808273ffffffffffffffffffffffffffffffffffffffff16610ccf836107a0565b73ffffffffffffffffffffffffffffffffffffffff167f8c5be1e5ebec7d5bd14f71427d1e84f3dd0314c0f7b2291e5b200ac8c7c3b92560405160405180910390a45050565b600080610d21836107a0565b90508073ffffffffffffffffffffffffffffffffffffffff168473ffffffffffffffffffffffffffffffffffffffff161480610d635750610d628185610b0b565b5b80610da157508373ffffffffffffffffffffffffffffffffffffffff16610d898461055f565b73ffffffffffffffffffffffffffffffffffffffff16145b91505092915050565b8273ffffffffffffffffffffffffffffffffffffffff16610dca826107a0565b73ffffffffffffffffffffffffffffffffffffffff1614610e20576040517f08c379a0000000000000000000000000000000000000000000000000000000008152600401610e1790612477565b60405180910390fd5b600073ffffffffffffffffffffffffffffffffffffffff168273ffffffffffffffffffffffffffffffffffffffff1603610e8f576040517f08c379a0000000000000000000000000000000000000000000000000000000008152600401610e8690612509565b60405180910390fd5b610e9c8383836001611616565b8273ffffffffffffffffffffffffffffffffffffffff16610ebc826107a0565b73ffffffffffffffffffffffffffffffffffffffff1614610f12576040517f08c379a0000000000000000000000000000000000000000000000000000000008152600401610f0990612477565b60405180910390fd5b6004600082815260200190815260200160002060006101000a81549073ffffffffffffffffffffffffffffffffffffffff02191690556001600360008573ffffffffffffffffffffffffffffffffffffffff1673ffffffffffffffffffffffffffffffffffffffff168152602001908152602001600020600082825403925050819055506001600360008473ffffffffffffffffffffffffffffffffffffffff1673ffffffffffffffffffffffffffffffffffffffff16815260200190815260200160002060008282540192505081905550816002600083815260200190815260200160002060006101000a81548173ffffffffffffffffffffffffffffffffffffffff021916908373ffffffffffffffffffffffffffffffffffffffff160217905550808273ffffffffffffffffffffffffffffffffffffffff168473ffffffffffffffffffffffffffffffffffffffff167fddf252ad1be2c89b69c2b068fc378daa952ba7f163c4a11628f55a4df523b3ef60405160405180910390a461109e838383600161161c565b505050565b6001816000016000828254019250508190555050565b600081600001549050919050565b600073ffffffffffffffffffffffffffffffffffffffff168273ffffffffffffffffffffffffffffffffffffffff1603611136576040517f08c379a000000000000000000000000000000000000000000000000000000000815260040161112d90612575565b60405180910390fd5b61113f816115d5565b1561117f576040517f08c379a0000000000000000000000000000000000000000000000000000000008152600401611176906125e1565b60405180910390fd5b61118d600083836001611616565b611196816115d5565b156111d6576040517f08c379a00000000000000000000000000000000000000000000000000000000081526004016111cd906125e1565b60405180910390fd5b6001600360008473ffffffffffffffffffffffffffffffffffffffff1673ffffffffffffffffffffffffffffffffffffffff16815260200190815260200160002060008282540192505081905550816002600083815260200190815260200160002060006101000a81548173ffffffffffffffffffffffffffffffffffffffff021916908373ffffffffffffffffffffffffffffffffffffffff160217905550808273ffffffffffffffffffffffffffffffffffffffff16600073ffffffffffffffffffffffffffffffffffffffff167fddf252ad1be2c89b69c2b068fc378daa952ba7f163c4a11628f55a4df523b3ef60405160405180910390a46112e060008383600161161c565b5050565b6112ed826115d5565b61132c576040517f08c379a000000000000000000000000000000000000000000000000000000000815260040161132390612673565b60405180910390fd5b8060066000848152602001908152602001600020908161134c919061283f565b505050565b60006002600083815260200190815260200160002060009054906101000a900473ffffffffffffffffffffffffffffffffffffffff169050919050565b8173ffffffffffffffffffffffffffffffffffffffff168373ffffffffffffffffffffffffffffffffffffffff16036113fc576040517f08c379a00000000000000000000000000000000000000000000000000000000081526004016113f39061295d565b60405180910390fd5b80600560008573ffffffffffffffffffffffffffffffffffffffff1673ffffffffffffffffffffffffffffffffffffffff16815260200190815260200160002060008473ffffffffffffffffffffffffffffffffffffffff1673ffffffffffffffffffffffffffffffffffffffff16815260200190815260200160002060006101000a81548160ff0219169083151502179055508173ffffffffffffffffffffffffffffffffffffffff168373ffffffffffffffffffffffffffffffffffffffff167f17307eab39ab6107e8899845ad3d59bd9653f200f220920489ca2b5937696c31836040516114ed9190611aa1565b60405180910390a3505050565b611505848484610daa565b61151184848484611622565b611550576040517f08c379a0000000000000000000000000000000000000000000000000000000008152600401611547906129ef565b60405180910390fd5b50505050565b606060405180602001604052806000815250905090565b606061157882610c09565b6000611582611556565b905060008151116115a257604051806020016040528060008152506115cd565b806115ac846117a9565b6040516020016115bd9291906123e1565b6040516020818303038152906040525b915050919050565b60008073ffffffffffffffffffffffffffffffffffffffff166115f783611351565b73ffffffffffffffffffffffffffffffffffffffff1614159050919050565b50505050565b50505050565b60006116438473ffffffffffffffffffffffffffffffffffffffff16611877565b1561179c578373ffffffffffffffffffffffffffffffffffffffff1663150b7a0261166c610c54565b8786866040518563ffffffff1660e01b815260040161168e9493929190612a64565b6020604051808303816000875af19250505080156116ca57506040513d601f19601f820116820180604052508101906116c79190612ac5565b60015b61174c573d80600081146116fa576040519150601f19603f3d011682016040523d82523d6000602084013e6116ff565b606091505b506000815103611744576040517f08c379a000000000000000000000000000000000000000000000000000000000815260040161173b906129ef565b60405180910390fd5b805181602001fd5b63150b7a0260e01b7bffffffffffffffffffffffffffffffffffffffffffffffffffffffff1916817bffffffffffffffffffffffffffffffffffffffffffffffffffffffff1916149150506117a1565b600190505b949350505050565b6060600060016117b88461189a565b01905060008167ffffffffffffffff8111156117d7576117d6611cf6565b5b6040519080825280601f01601f1916602001820160405280156118095781602001600182028036833780820191505090505b509050600082602001820190505b60011561186c578080600190039150507f3031323334353637383961626364656600000000000000000000000000000000600a86061a8153600a85816118605761185f612af2565b5b04945060008503611817575b819350505050919050565b6000808273ffffffffffffffffffffffffffffffffffffffff163b119050919050565b600080600090507a184f03e93ff9f4daa797ed6e38ed64bf6a1f01000000000000000083106118f8577a184f03e93ff9f4daa797ed6e38ed64bf6a1f01000000000000000083816118ee576118ed612af2565b5b0492506040810190505b6d04ee2d6d415b85acef81000000008310611935576d04ee2d6d415b85acef8100000000838161192b5761192a612af2565b5b0492506020810190505b662386f26fc10000831061196457662386f26fc10000838161195a57611959612af2565b5b0492506010810190505b6305f5e100831061198d576305f5e100838161198357611982612af2565b5b0492506008810190505b61271083106119b25761271083816119a8576119a7612af2565b5b0492506004810190505b606483106119d557606483816119cb576119ca612af2565b5b0492506002810190505b600a83106119e4576001810190505b80915050919050565b6000604051905090565b600080fd5b600080fd5b60007fffffffff0000000000000000000000000000000000000000000000000000000082169050919050565b611a3681611a01565b8114611a4157600080fd5b50565b600081359050611a5381611a2d565b92915050565b600060208284031215611a6f57611a6e6119f7565b5b6000611a7d84828501611a44565b91505092915050565b60008115159050919050565b611a9b81611a86565b82525050565b6000602082019050611ab66000830184611a92565b92915050565b600081519050919050565b600082825260208201905092915050565b60005b83811015611af6578082015181840152602081019050611adb565b60008484015250505050565b6000601f19601f8301169050919050565b6000611b1e82611abc565b611b288185611ac7565b9350611b38818560208601611ad8565b611b4181611b02565b840191505092915050565b60006020820190508181036000830152611b668184611b13565b905092915050565b6000819050919050565b611b8181611b6e565b8114611b8c57600080fd5b50565b600081359050611b9e81611b78565b92915050565b600060208284031215611bba57611bb96119f7565b5b6000611bc884828501611b8f565b91505092915050565b600073ffffffffffffffffffffffffffffffffffffffff82169050919050565b6000611bfc82611bd1565b9050919050565b611c0c81611bf1565b82525050565b6000602082019050611c276000830184611c03565b92915050565b611c3681611bf1565b8114611c4157600080fd5b50565b600081359050611c5381611c2d565b92915050565b60008060408385031215611c7057611c6f6119f7565b5b6000611c7e85828601611c44565b9250506020611c8f85828601611b8f565b9150509250929050565b600080600060608486031215611cb257611cb16119f7565b5b6000611cc086828701611c44565b9350506020611cd186828701611c44565b9250506040611ce286828701611b8f565b9150509250925092565b600080fd5b600080fd5b7f4e487b7100000000000000000000000000000000000000000000000000000000600052604160045260246000fd5b611d2e82611b02565b810181811067ffffffffffffffff82111715611d4d57611d4c611cf6565b5b80604052505050565b6000611d606119ed565b9050611d6c8282611d25565b919050565b600067ffffffffffffffff821115611d8c57611d8b611cf6565b5b611d9582611b02565b9050602081019050919050565b82818337600083830152505050565b6000611dc4611dbf84611d71565b611d56565b905082815260208101848484011115611de057611ddf611cf1565b5b611deb848285611da2565b509392505050565b600082601f830112611e0857611e07611cec565b5b8135611e18848260208601611db1565b91505092915050565b600060208284031215611e3757611e366119f7565b5b600082013567ffffffffffffffff811115611e5557611e546119fc565b5b611e6184828501611df3565b91505092915050565b611e7381611b6e565b82525050565b6000602082019050611e8e6000830184611e6a565b92915050565b600060208284031215611eaa57611ea96119f7565b5b6000611eb884828501611c44565b91505092915050565b611eca81611a86565b8114611ed557600080fd5b50565b600081359050611ee781611ec1565b92915050565b60008060408385031215611f0457611f036119f7565b5b6000611f1285828601611c44565b9250506020611f2385828601611ed8565b9150509250929050565b600067ffffffffffffffff821115611f4857611f47611cf6565b5b611f5182611b02565b9050602081019050919050565b6000611f71611f6c84611f2d565b611d56565b905082815260208101848484011115611f8d57611f8c611cf1565b5b611f98848285611da2565b509392505050565b600082601f830112611fb557611fb4611cec565b5b8135611fc5848260208601611f5e565b91505092915050565b60008060008060808587031215611fe857611fe76119f7565b5b6000611ff687828801611c44565b945050602061200787828801611c44565b935050604061201887828801611b8f565b925050606085013567ffffffffffffffff811115612039576120386119fc565b5b61204587828801611fa0565b91505092959194509250565b60008060408385031215612068576120676119f7565b5b600061207685828601611c44565b925050602061208785828601611c44565b9150509250929050565b7f4e487b7100000000000000000000000000000000000000000000000000000000600052602260045260246000fd5b600060028204905060018216806120d857607f821691505b6020821081036120eb576120ea612091565b5b50919050565b7f4552433732313a20617070726f76616c20746f2063757272656e74206f776e6560008201527f7200000000000000000000000000000000000000000000000000000000000000602082015250565b600061214d602183611ac7565b9150612158826120f1565b604082019050919050565b6000602082019050818103600083015261217c81612140565b9050919050565b7f4552433732313a20617070726f76652063616c6c6572206973206e6f7420746f60008201527f6b656e206f776e6572206f7220617070726f76656420666f7220616c6c000000602082015250565b60006121df603d83611ac7565b91506121ea82612183565b604082019050919050565b6000602082019050818103600083015261220e816121d2565b9050919050565b7f4552433732313a2063616c6c6572206973206e6f7420746f6b656e206f776e6560008201527f72206f7220617070726f76656400000000000000000000000000000000000000602082015250565b6000612271602d83611ac7565b915061227c82612215565b604082019050919050565b600060208201905081810360008301526122a081612264565b9050919050565b7f4552433732313a20696e76616c696420746f6b656e2049440000000000000000600082015250565b60006122dd601883611ac7565b91506122e8826122a7565b602082019050919050565b6000602082019050818103600083015261230c816122d0565b9050919050565b7f4552433732313a2061646472657373207a65726f206973206e6f74206120766160008201527f6c6964206f776e65720000000000000000000000000000000000000000000000602082015250565b600061236f602983611ac7565b915061237a82612313565b604082019050919050565b6000602082019050818103600083015261239e81612362565b9050919050565b600081905092915050565b60006123bb82611abc565b6123c581856123a5565b93506123d5818560208601611ad8565b80840191505092915050565b60006123ed82856123b0565b91506123f982846123b0565b91508190509392505050565b7f4552433732313a207472616e736665722066726f6d20696e636f72726563742060008201527f6f776e6572000000000000000000000000000000000000000000000000000000602082015250565b6000612461602583611ac7565b915061246c82612405565b604082019050919050565b6000602082019050818103600083015261249081612454565b9050919050565b7f4552433732313a207472616e7366657220746f20746865207a65726f2061646460008201527f7265737300000000000000000000000000000000000000000000000000000000602082015250565b60006124f3602483611ac7565b91506124fe82612497565b604082019050919050565b60006020820190508181036000830152612522816124e6565b9050919050565b7f4552433732313a206d696e7420746f20746865207a65726f2061646472657373600082015250565b600061255f602083611ac7565b915061256a82612529565b602082019050919050565b6000602082019050818103600083015261258e81612552565b9050919050565b7f4552433732313a20746f6b656e20616c7265616479206d696e74656400000000600082015250565b60006125cb601c83611ac7565b91506125d682612595565b602082019050919050565b600060208201905081810360008301526125fa816125be565b9050919050565b7f45524337323155524953746f726167653a2055524920736574206f66206e6f6e60008201527f6578697374656e7420746f6b656e000000000000000000000000000000000000602082015250565b600061265d602e83611ac7565b915061266882612601565b604082019050919050565b6000602082019050818103600083015261268c81612650565b9050919050565b60008190508160005260206000209050919050565b60006020601f8301049050919050565b600082821b905092915050565b6000600883026126f57fffffffffffffffffffffffffffffffffffffffffffffffffffffffffffffffff826126b8565b6126ff86836126b8565b95508019841693508086168417925050509392505050565b6000819050919050565b600061273c61273761273284611b6e565b612717565b611b6e565b9050919050565b6000819050919050565b61275683612721565b61276a61276282612743565b8484546126c5565b825550505050565b600090565b61277f612772565b61278a81848461274d565b505050565b5b818110156127ae576127a3600082612777565b600181019050612790565b5050565b601f8211156127f3576127c481612693565b6127cd846126a8565b810160208510156127dc578190505b6127f06127e8856126a8565b83018261278f565b50505b505050565b600082821c905092915050565b6000612816600019846008026127f8565b1980831691505092915050565b600061282f8383612805565b9150826002028217905092915050565b61284882611abc565b67ffffffffffffffff81111561286157612860611cf6565b5b61286b82546120c0565b6128768282856127b2565b600060209050601f8311600181146128a95760008415612897578287015190505b6128a18582612823565b865550612909565b601f1984166128b786612693565b60005b828110156128df578489015182556001820191506020850194506020810190506128ba565b868310156128fc57848901516128f8601f891682612805565b8355505b6001600288020188555050505b505050505050565b7f4552433732313a20617070726f766520746f2063616c6c657200000000000000600082015250565b6000612947601983611ac7565b915061295282612911565b602082019050919050565b600060208201905081810360008301526129768161293a565b9050919050565b7f4552433732313a207472616e7366657220746f206e6f6e20455243373231526560008201527f63656976657220696d706c656d656e7465720000000000000000000000000000602082015250565b60006129d9603283611ac7565b91506129e48261297d565b604082019050919050565b60006020820190508181036000830152612a08816129cc565b9050919050565b600081519050919050565b600082825260208201905092915050565b6000612a3682612a0f565b612a408185612a1a565b9350612a50818560208601611ad8565b612a5981611b02565b840191505092915050565b6000608082019050612a796000830187611c03565b612a866020830186611c03565b612a936040830185611e6a565b8181036060830152612aa58184612a2b565b905095945050505050565b600081519050612abf81611a2d565b92915050565b600060208284031215612adb57612ada6119f7565b5b6000612ae984828501612ab0565b91505092915050565b7f4e487b7100000000000000000000000000000000000000000000000000000000600052601260045260246000fdfea2646970667358221220ce5eb9ad177b67f8b9a4cb785ca59994df1bb882c08b04ee718ecc36c49aef9664736f6c63430008110033",
  "linkReferences": {},
  "deployedLinkReferences": {}
}