{
  "_format": "hh-sol-artifact-1",
  "contractName": "NFTMarketplace",
  "sourceName": "contracts/nftMarketPlace.sol",
  "abi": [
    {
      "inputs": [],
      "stateMutability": "nonpayable",
      "type": "constructor"
    },
    {
      "anonymous": false,
      "inputs": [
        {
          "indexed": true,
          "internalType": "uint256",
          "name": "itemId",
          "type": "uint256"
        },
        {
          "indexed": true,
          "internalType": "address",
          "name": "nftContract",
          "type": "address"
        },
        {
          "indexed": true,
          "internalType": "uint256",
          "name": "tokenId",
          "type": "uint256"
        },
        {
          "indexed": false,
          "internalType": "address",
          "name": "seller",
          "type": "address"
        },
        {
          "indexed": false,
          "internalType": "address",
          "name": "owner",
          "type": "address"
        },
        {
          "indexed": false,
          "internalType": "uint256",
          "name": "price",
          "type": "uint256"
        },
        {
          "indexed": false,
          "internalType": "bool",
          "name": "sold",
          "type": "bool"
        }
      ],
      "name": "MarketItemCreated",
      "type": "event"
    },
    {
      "anonymous": false,
      "inputs": [
        {
          "indexed": true,
          "internalType": "uint256",
          "name": "itemId",
          "type": "uint256"
        },
        {
          "indexed": true,
          "internalType": "address",
          "name": "nftContract",
          "type": "address"
        },
        {
          "indexed": true,
          "internalType": "uint256",
          "name": "tokenId",
          "type": "uint256"
        },
        {
          "indexed": false,
          "internalType": "address",
          "name": "seller",
          "type": "address"
        },
        {
          "indexed": false,
          "internalType": "address",
          "name": "owner",
          "type": "address"
        },
        {
          "indexed": false,
          "internalType": "uint256",
          "name": "price",
          "type": "uint256"
        },
        {
          "indexed": false,
          "internalType": "bool",
          "name": "sold",
          "type": "bool"
        }
      ],
      "name": "MarketItemSold",
      "type": "event"
    },
    {
      "inputs": [
        {
          "internalType": "address",
          "name": "_nftcontract",
          "type": "address"
        },
        {
          "internalType": "uint256",
          "name": "_tokenId",
          "type": "uint256"
        },
        {
          "internalType": "uint256",
          "name": "_price",
          "type": "uint256"
        }
      ],
      "name": "ListItemForSale",
      "outputs": [],
      "stateMutability": "payable",
      "type": "function"
    },
    {
      "inputs": [
        {
          "internalType": "address",
          "name": "_nftcontract",
          "type": "address"
        },
        {
          "internalType": "uint256",
          "name": "itemId",
          "type": "uint256"
        }
      ],
      "name": "buyAsset",
      "outputs": [],
      "stateMutability": "payable",
      "type": "function"
    },
    {
      "inputs": [],
      "name": "fetchItemListed",
      "outputs": [
        {
          "components": [
            {
              "internalType": "uint256",
              "name": "itemId",
              "type": "uint256"
            },
            {
              "internalType": "address",
              "name": "nftContract",
              "type": "address"
            },
            {
              "internalType": "uint256",
              "name": "tokenId",
              "type": "uint256"
            },
            {
              "internalType": "address payable",
              "name": "seller",
              "type": "address"
            },
            {
              "internalType": "address payable",
              "name": "owner",
              "type": "address"
            },
            {
              "internalType": "uint256",
              "name": "price",
              "type": "uint256"
            },
            {
              "internalType": "bool",
              "name": "sold",
              "type": "bool"
            }
          ],
          "internalType": "struct NFTMarketplace.MarketItem[]",
          "name": "",
          "type": "tuple[]"
        }
      ],
      "stateMutability": "view",
      "type": "function"
    },
    {
      "inputs": [],
      "name": "fetchMarketItems",
      "outputs": [
        {
          "components": [
            {
              "internalType": "uint256",
              "name": "itemId",
              "type": "uint256"
            },
            {
              "internalType": "address",
              "name": "nftContract",
              "type": "address"
            },
            {
              "internalType": "uint256",
              "name": "tokenId",
              "type": "uint256"
            },
            {
              "internalType": "address payable",
              "name": "seller",
              "type": "address"
            },
            {
              "internalType": "address payable",
              "name": "owner",
              "type": "address"
            },
            {
              "internalType": "uint256",
              "name": "price",
              "type": "uint256"
            },
            {
              "internalType": "bool",
              "name": "sold",
              "type": "bool"
            }
          ],
          "internalType": "struct NFTMarketplace.MarketItem[]",
          "name": "",
          "type": "tuple[]"
        }
      ],
      "stateMutability": "view",
      "type": "function"
    },
    {
      "inputs": [],
      "name": "fetchMyNfts",
      "outputs": [
        {
          "components": [
            {
              "internalType": "uint256",
              "name": "itemId",
              "type": "uint256"
            },
            {
              "internalType": "address",
              "name": "nftContract",
              "type": "address"
            },
            {
              "internalType": "uint256",
              "name": "tokenId",
              "type": "uint256"
            },
            {
              "internalType": "address payable",
              "name": "seller",
              "type": "address"
            },
            {
              "internalType": "address payable",
              "name": "owner",
              "type": "address"
            },
            {
              "internalType": "uint256",
              "name": "price",
              "type": "uint256"
            },
            {
              "internalType": "bool",
              "name": "sold",
              "type": "bool"
            }
          ],
          "internalType": "struct NFTMarketplace.MarketItem[]",
          "name": "",
          "type": "tuple[]"
        }
      ],
      "stateMutability": "view",
      "type": "function"
    },
    {
      "inputs": [],
      "name": "listingPrice",
      "outputs": [
        {
          "internalType": "uint256",
          "name": "",
          "type": "uint256"
        }
      ],
      "stateMutability": "view",
      "type": "function"
    }
  ],
  "bytecode": "0x608060405234801561001057600080fd5b50600160008190555033600360006101000a81548173ffffffffffffffffffffffffffffffffffffffff021916908373ffffffffffffffffffffffffffffffffffffffff160217905550611a0d806100696000396000f3fe6080604052600436106100555760003560e01c80630f08efe01461005a578063128ae71214610085578063938c7c3a146100b0578063c78f19f9146100cc578063c83e1665146100f7578063e179144514610113575b600080fd5b34801561006657600080fd5b5061006f61013e565b60405161007c91906113f3565b60405180910390f35b34801561009157600080fd5b5061009a61041d565b6040516100a791906113f3565b60405180910390f35b6100ca60048036038101906100c59190611472565b61077f565b005b3480156100d857600080fd5b506100e1610b1a565b6040516100ee91906114c1565b60405180910390f35b610111600480360381019061010c91906114dc565b610b25565b005b34801561011f57600080fd5b50610128610dc0565b60405161013591906113f3565b60405180910390f35b6060600061014c6001611122565b9050600061015a6002611122565b6101646001611122565b61016e919061155e565b90506000808267ffffffffffffffff81111561018d5761018c611592565b5b6040519080825280602002602001820160405280156101c657816020015b6101b361119f565b8152602001906001900390816101ab5790505b50905060005b8481101561041257600073ffffffffffffffffffffffffffffffffffffffff16600460006001846101fd91906115c1565b815260200190815260200160002060040160009054906101000a900473ffffffffffffffffffffffffffffffffffffffff1673ffffffffffffffffffffffffffffffffffffffff16036103ff5760006004600060018461025d91906115c1565b81526020019081526020016000206000015490506000600460008381526020019081526020016000209050806040518060e0016040529081600082015481526020016001820160009054906101000a900473ffffffffffffffffffffffffffffffffffffffff1673ffffffffffffffffffffffffffffffffffffffff1673ffffffffffffffffffffffffffffffffffffffff168152602001600282015481526020016003820160009054906101000a900473ffffffffffffffffffffffffffffffffffffffff1673ffffffffffffffffffffffffffffffffffffffff1673ffffffffffffffffffffffffffffffffffffffff1681526020016004820160009054906101000a900473ffffffffffffffffffffffffffffffffffffffff1673ffffffffffffffffffffffffffffffffffffffff1673ffffffffffffffffffffffffffffffffffffffff168152602001600582015481526020016006820160009054906101000a900460ff1615151515815250508486815181106103e2576103e16115f5565b5b60200260200101819052506001856103fa91906115c1565b945050505b808061040a90611624565b9150506101cc565b508094505050505090565b6060600061042b6001611122565b905060008060005b838110156104d3573373ffffffffffffffffffffffffffffffffffffffff166004600060018461046391906115c1565b815260200190815260200160002060040160009054906101000a900473ffffffffffffffffffffffffffffffffffffffff1673ffffffffffffffffffffffffffffffffffffffff16036104c0576001836104bd91906115c1565b92505b80806104cb90611624565b915050610433565b5060008267ffffffffffffffff8111156104f0576104ef611592565b5b60405190808252806020026020018201604052801561052957816020015b61051661119f565b81526020019060019003908161050e5790505b50905060005b84811015610774573373ffffffffffffffffffffffffffffffffffffffff166004600060018461055f91906115c1565b815260200190815260200160002060040160009054906101000a900473ffffffffffffffffffffffffffffffffffffffff1673ffffffffffffffffffffffffffffffffffffffff1603610761576000600460006001846105bf91906115c1565b81526020019081526020016000206000015490506000600460008381526020019081526020016000209050806040518060e0016040529081600082015481526020016001820160009054906101000a900473ffffffffffffffffffffffffffffffffffffffff1673ffffffffffffffffffffffffffffffffffffffff1673ffffffffffffffffffffffffffffffffffffffff168152602001600282015481526020016003820160009054906101000a900473ffffffffffffffffffffffffffffffffffffffff1673ffffffffffffffffffffffffffffffffffffffff1673ffffffffffffffffffffffffffffffffffffffff1681526020016004820160009054906101000a900473ffffffffffffffffffffffffffffffffffffffff1673ffffffffffffffffffffffffffffffffffffffff1673ffffffffffffffffffffffffffffffffffffffff168152602001600582015481526020016006820160009054906101000a900460ff161515151581525050848681518110610744576107436115f5565b5b602002602001018190525060018561075c91906115c1565b945050505b808061076c90611624565b91505061052f565b508094505050505090565b610787611130565b60006004600083815260200190815260200160002060050154905060006004600084815260200190815260200160002060020154905060006004600085815260200190815260200160002060030160009054906101000a900473ffffffffffffffffffffffffffffffffffffffff16905082341461083a576040517f08c379a0000000000000000000000000000000000000000000000000000000008152600401610831906116c9565b60405180910390fd5b3373ffffffffffffffffffffffffffffffffffffffff168173ffffffffffffffffffffffffffffffffffffffff16036108a8576040517f08c379a000000000000000000000000000000000000000000000000000000000815260040161089f90611735565b60405180910390fd5b6004600085815260200190815260200160002060030160009054906101000a900473ffffffffffffffffffffffffffffffffffffffff1673ffffffffffffffffffffffffffffffffffffffff166108fc349081150290604051600060405180830381858888f19350505050158015610924573d6000803e3d6000fd5b508473ffffffffffffffffffffffffffffffffffffffff166323b872dd3033856040518463ffffffff1660e01b815260040161096293929190611764565b600060405180830381600087803b15801561097c57600080fd5b505af1158015610990573d6000803e3d6000fd5b50505050336004600086815260200190815260200160002060040160006101000a81548173ffffffffffffffffffffffffffffffffffffffff021916908373ffffffffffffffffffffffffffffffffffffffff16021790555060016004600086815260200190815260200160002060060160006101000a81548160ff021916908315150217905550610a22600261117f565b600360009054906101000a900473ffffffffffffffffffffffffffffffffffffffff1673ffffffffffffffffffffffffffffffffffffffff166108fc6602615c87ffe0009081150290604051600060405180830381858888f19350505050158015610a91573d6000803e3d6000fd5b50818573ffffffffffffffffffffffffffffffffffffffff16857ffeb04e399f6ba62d926a65372cbb5f11e3c7a9ff05e62948769d2ee5d5335b8484600360009054906101000a900473ffffffffffffffffffffffffffffffffffffffff16886001604051610b039493929190611809565b60405180910390a4505050610b16611195565b5050565b6602615c87ffe00081565b610b2d611130565b60008111610b70576040517f08c379a0000000000000000000000000000000000000000000000000000000008152600401610b679061189a565b60405180910390fd5b6602615c87ffe0003414610bb9576040517f08c379a0000000000000000000000000000000000000000000000000000000008152600401610bb090611906565b60405180910390fd5b610bc3600161117f565b6000610bcf6001611122565b90506000600460008381526020019081526020016000209050818160000181905550848160010160006101000a81548173ffffffffffffffffffffffffffffffffffffffff021916908373ffffffffffffffffffffffffffffffffffffffff160217905550838160020181905550338160030160006101000a81548173ffffffffffffffffffffffffffffffffffffffff021916908373ffffffffffffffffffffffffffffffffffffffff16021790555060008160040160006101000a81548173ffffffffffffffffffffffffffffffffffffffff021916908373ffffffffffffffffffffffffffffffffffffffff16021790555082816005018190555060008160060160006101000a81548160ff0219169083151502179055508473ffffffffffffffffffffffffffffffffffffffff166323b872dd3330876040518463ffffffff1660e01b8152600401610d2793929190611764565b600060405180830381600087803b158015610d4157600080fd5b505af1158015610d55573d6000803e3d6000fd5b50505050838573ffffffffffffffffffffffffffffffffffffffff16837f045dfa01dcba2b36aba1d3dc4a874f4b0c5d2fbeb8d2c4b34a7d88c8d8f929d1336000886000604051610da99493929190611926565b60405180910390a45050610dbb611195565b505050565b60606000610dce6001611122565b905060008060005b83811015610e76573373ffffffffffffffffffffffffffffffffffffffff1660046000600184610e0691906115c1565b815260200190815260200160002060030160009054906101000a900473ffffffffffffffffffffffffffffffffffffffff1673ffffffffffffffffffffffffffffffffffffffff1603610e6357600183610e6091906115c1565b92505b8080610e6e90611624565b915050610dd6565b5060008267ffffffffffffffff811115610e9357610e92611592565b5b604051908082528060200260200182016040528015610ecc57816020015b610eb961119f565b815260200190600190039081610eb15790505b50905060005b84811015611117573373ffffffffffffffffffffffffffffffffffffffff1660046000600184610f0291906115c1565b815260200190815260200160002060030160009054906101000a900473ffffffffffffffffffffffffffffffffffffffff1673ffffffffffffffffffffffffffffffffffffffff160361110457600060046000600184610f6291906115c1565b81526020019081526020016000206000015490506000600460008381526020019081526020016000209050806040518060e0016040529081600082015481526020016001820160009054906101000a900473ffffffffffffffffffffffffffffffffffffffff1673ffffffffffffffffffffffffffffffffffffffff1673ffffffffffffffffffffffffffffffffffffffff168152602001600282015481526020016003820160009054906101000a900473ffffffffffffffffffffffffffffffffffffffff1673ffffffffffffffffffffffffffffffffffffffff1673ffffffffffffffffffffffffffffffffffffffff1681526020016004820160009054906101000a900473ffffffffffffffffffffffffffffffffffffffff1673ffffffffffffffffffffffffffffffffffffffff1673ffffffffffffffffffffffffffffffffffffffff168152602001600582015481526020016006820160009054906101000a900460ff1615151515815250508486815181106110e7576110e66115f5565b5b60200260200101819052506001856110ff91906115c1565b945050505b808061110f90611624565b915050610ed2565b508094505050505090565b600081600001549050919050565b600260005403611175576040517f08c379a000000000000000000000000000000000000000000000000000000000815260040161116c906119b7565b60405180910390fd5b6002600081905550565b6001816000016000828254019250508190555050565b6001600081905550565b6040518060e0016040528060008152602001600073ffffffffffffffffffffffffffffffffffffffff16815260200160008152602001600073ffffffffffffffffffffffffffffffffffffffff168152602001600073ffffffffffffffffffffffffffffffffffffffff168152602001600081526020016000151581525090565b600081519050919050565b600082825260208201905092915050565b6000819050602082019050919050565b6000819050919050565b61125f8161124c565b82525050565b600073ffffffffffffffffffffffffffffffffffffffff82169050919050565b600061129082611265565b9050919050565b6112a081611285565b82525050565b60006112b182611265565b9050919050565b6112c1816112a6565b82525050565b60008115159050919050565b6112dc816112c7565b82525050565b60e0820160008201516112f86000850182611256565b50602082015161130b6020850182611297565b50604082015161131e6040850182611256565b50606082015161133160608501826112b8565b50608082015161134460808501826112b8565b5060a082015161135760a0850182611256565b5060c082015161136a60c08501826112d3565b50505050565b600061137c83836112e2565b60e08301905092915050565b6000602082019050919050565b60006113a082611220565b6113aa818561122b565b93506113b58361123c565b8060005b838110156113e65781516113cd8882611370565b97506113d883611388565b9250506001810190506113b9565b5085935050505092915050565b6000602082019050818103600083015261140d8184611395565b905092915050565b600080fd5b61142381611285565b811461142e57600080fd5b50565b6000813590506114408161141a565b92915050565b61144f8161124c565b811461145a57600080fd5b50565b60008135905061146c81611446565b92915050565b6000806040838503121561148957611488611415565b5b600061149785828601611431565b92505060206114a88582860161145d565b9150509250929050565b6114bb8161124c565b82525050565b60006020820190506114d660008301846114b2565b92915050565b6000806000606084860312156114f5576114f4611415565b5b600061150386828701611431565b93505060206115148682870161145d565b92505060406115258682870161145d565b9150509250925092565b7f4e487b7100000000000000000000000000000000000000000000000000000000600052601160045260246000fd5b60006115698261124c565b91506115748361124c565b925082820390508181111561158c5761158b61152f565b5b92915050565b7f4e487b7100000000000000000000000000000000000000000000000000000000600052604160045260246000fd5b60006115cc8261124c565b91506115d78361124c565b92508282019050808211156115ef576115ee61152f565b5b92915050565b7f4e487b7100000000000000000000000000000000000000000000000000000000600052603260045260246000fd5b600061162f8261124c565b91507fffffffffffffffffffffffffffffffffffffffffffffffffffffffffffffffff82036116615761166061152f565b5b600182019050919050565b600082825260208201905092915050565b7f616d6f756e74206e6f742061736b696e67207072696365000000000000000000600082015250565b60006116b360178361166c565b91506116be8261167d565b602082019050919050565b600060208201905081810360008301526116e2816116a6565b9050919050565b7f63616e6e6f7420627579206173736574206c6973746564000000000000000000600082015250565b600061171f60178361166c565b915061172a826116e9565b602082019050919050565b6000602082019050818103600083015261174e81611712565b9050919050565b61175e81611285565b82525050565b60006060820190506117796000830186611755565b6117866020830185611755565b61179360408301846114b2565b949350505050565b6000819050919050565b60006117c06117bb6117b684611265565b61179b565b611265565b9050919050565b60006117d2826117a5565b9050919050565b60006117e4826117c7565b9050919050565b6117f4816117d9565b82525050565b611803816112c7565b82525050565b600060808201905061181e6000830187611755565b61182b60208301866117eb565b61183860408301856114b2565b61184560608301846117fa565b95945050505050565b7f616d6f756e74206d7573742062652067726561746572207468616e207a65726f600082015250565b600061188460208361166c565b915061188f8261184e565b602082019050919050565b600060208201905081810360008301526118b381611877565b9050919050565b7f6e6f74206c697374696e67207072696365000000000000000000000000000000600082015250565b60006118f060118361166c565b91506118fb826118ba565b602082019050919050565b6000602082019050818103600083015261191f816118e3565b9050919050565b600060808201905061193b6000830187611755565b6119486020830186611755565b61195560408301856114b2565b61196260608301846117fa565b95945050505050565b7f5265656e7472616e637947756172643a207265656e7472616e742063616c6c00600082015250565b60006119a1601f8361166c565b91506119ac8261196b565b602082019050919050565b600060208201905081810360008301526119d081611994565b905091905056fea2646970667358221220ad7d2f09222a661440e9de280d693cface376becfe9e671063bcb43766b64db664736f6c63430008110033",
  "linkReferences": {},
  "deployedLinkReferences": {}
}